:020000040800F2
:100000006806002039020008410200084302000887
:1000100045020008470200084902000800000000ED
:100020000000000000000000000000004B0200087B
:100030004D020008000000004F020008F50700080C
:10004000530200085302000853020008530200083C
:10005000530200085302000853020008530200082C
:10006000530200085302000853020008530200081C
:10007000530200085302000853020008530200080C
:100080005302000853020008530200080000000059
:100090000000000000000000000000005302000803
:1000A00053020008530200085302000853020008DC
:1000B00053020008530200085302000853020008CC
:1000C00053020008530200085302000853020008BC
:1000D0005302000853020008530200080000000009
:1000E000010300085302000853020008000000004A
:1000F00000000000000000000000000053020008A3
:1001000000000000530200085302000853020008D8
:1001100000000000000000000000000000000000DF
:10012000530200085302000853020008530200085B
:100130005302000800000000000000000000000062
:100140000000000000000000000000005302000852
:10015000530200085302000853020008530200082B
:1001600053020008530200080000000000000000D5
:10017000000000000000000000000000000000007F
:100180000000000053020008000000000000000012
:10019000530200085302000800F002F800F03CF897
:1001A0000AA090E8000C82448344AAF10107DA45D2
:1001B00001D100F031F8AFF2090EBAE80F0013F0E8
:1001C000010F18BFFB1A43F0010318478C0700000A
:1001D000AC070000103A24BF78C878C1FAD852079B
:1001E00024BF30C830C144BF04680C6070470000B1
:1001F0000023002400250026103A28BF78C1FBD830
:10020000520728BF30C148BF0B6070471FB500F0D0
:100210009DFB1FBD10B510BD00F031F81146FFF772
:10022000F5FF00F077FB00F04FF803B4FFF7F2FFA3
:1002300003BC00F057F80000094880470948004710
:10024000FEE7FEE7FEE7FEE7FEE7FEE7FEE7FEE786
:10025000FEE7FEE704480549054A064B70470000E3
:10026000B108000899010008680000206806002015
:10027000680200206802002070477047704775468A
:1002800000F02CF8AE4605006946534620F0070002
:10029000854618B020B5FFF7DDFFBDE820404FF0E0
:1002A00000064FF000074FF000084FF0000B21F060
:1002B0000701AC46ACE8C009ACE8C009ACE8C0092D
:1002C000ACE8C0098D46704710B50446AFF3008016
:1002D0002046BDE81040FFF7A8BF00000048704767
:1002E0000800002001491820ABBEFEE726000200EE
:1002F000704700000020014908607047040000209A
:1003000000B50848006800F40050B0F5005F07D160
:10031000FFF7F0FF0348006840F40050014908600F
:1003200000BD0000143C01402DE9F04F1E464FF087
:10033000000C0027002398466A4CA04202D14FF0DF
:10034000010C16E0684CA04204D14FF0020C4FF0B3
:1003500001080EE0654CA04204D14FF0040C4FF0B0
:10036000020806E0624CA04203D14FF0080C4FF0A7
:100370000308052901DA8F1D04E00A2901DA17278D
:1003800000E028270C46CD1701EB9575AB10594CB2
:10039000246844EA0C04574D2C6004684FEA410974
:1003A0006FF0030505FA09F52C400460C4684FEAB4
:1003B00041096FF0030505FA09F52C40C4607CB2D1
:1003C000002C0CDB04F01F09012505FA09F54FEAA2
:1003D00054194FEA890909F1E029C9F8005100BF11
:1003E0007CB23546002C08DB4FEA05794FEA196AE2
:1003F000DFF8049109F804A00BE04FEA05794FEA11
:10040000196BDFF8F89004F00F0AAAF1040A09F852
:100410000AB000BF374C1434246844F48044354D8E
:1004200014352C60364D55F823500C464FEAE179CF
:1004300001EB99794FEAA909A1EB89094FEA890AE9
:100440004FF00F0909FA0AF925EA0905DFF8B0901B
:1004500049F823504D4655F823504FEAE17901EB16
:1004600099794FEAA909A1EB89094FEA890908FAA4
:1004700009F945EA0905DFF8889049F82350214C2D
:10048000246801258D402C431E4D2C604AB91D4C1B
:100490000C34246801258D402C431A4D0C352C60FA
:1004A0001EE0012A09D1174C0834246801258D402B
:1004B0002C43144D08352C6012E0022A10D1114C47
:1004C0000834256801248C4025430E4C08342560EF
:1004D000241D246801258D402C430A4D0C352C60C9
:1004E000BDE8F08F00000240000402400008024016
:1004F000000C02403038024000E400E018ED00E05B
:1005000008380140003C014070B500232B4CA0424C
:1005100001D101230DE02A4CA04201D1022308E0C1
:10052000284CA04201D1042303E0274CA04200D173
:100530000823012A28D1254C24681C43234D2C6014
:1005400004684E000325B540AC43046004684D00C8
:1005500002FA05F52C43046084684E000325B5407B
:10056000AC43846084684E000225B5402C4384600F
:10057000456801248C40A5434560C4684E000325AE
:10058000B540AC43C46017E0B2B9104C24681C43BA
:100590000E4D2C6004684E000325B540AC4304604A
:1005A00004684D0002FA05F52C430460C4684E004F
:1005B0000225B5402C43C46070BD0000000002401D
:1005C0000004024000080240000C024030380240A3
:1005D00010B5012A05D1436901248C4023434361AE
:1005E00005E022B9446901238B409C43446110BD5E
:1005F0003B48006820F00F00394908600846006851
:1006000040F0020008603748006840F001003549BA
:10061000086000BF3348006800F002000028F9D0ED
:100620003048006820F080702E490860081D00687E
:1006300020F48000091D086008460068086008462C
:10064000006847F6C071884340F4A8502549091D49
:1006500008600846006820F03F0040F0080008608D
:100660000846006820F440300860081F006840F029
:100670008070091F086000BF1A480068C0F340601E
:100680000028F9D117480830006820F00300154908
:10069000083108600846006840F00200086000BFAA
:1006A00010480830006800F00C000828F8D10D4808
:1006B0000830006820F0F0000A4908310860084658
:1006C000006820F4E05008600846006840F480505C
:1006D00008600846006820F4604008607047000029
:1006E000003C02400038024000B5012205211348B9
:1006F000FFF70AFF012206211048FFF705FF01223C
:1007000007210E48FFF700FF012206210C48FFF7E2
:10071000FBFE012202210A48FFF7F6FE0122092111
:100720000648FFF7F1FE012208210448FFF7ECFE1E
:1007300001220A210248FFF7E7FE00BD0000024047
:100740000004024030B50546092D00DD00250024D7
:100750000A2D1AD2DFE805F00507090B0D0F11135A
:100760001517032411E09F240FE025240DE00D242C
:100770000BE0992409E0492407E0412405E01B240B
:1007800003E0012401E0092400BF00BFE2090521C4
:100790001648FFF71DFFC4F3801206211348FFF728
:1007A00017FFC4F3401207211048FFF711FFC4F3ED
:1007B000001206210E48FFF70BFFC4F3C00202210E
:1007C0000B48FFF705FFC4F3800209210748FFF734
:1007D000FFFEC4F3400208210448FFF7F9FE04F0CD
:1007E00001020A210248FFF7F3FE30BD000002407B
:1007F0000004024000B500F001F800BD094800689F
:10080000401C08490860084600684FF47A71B0FB44
:10081000F1F201FB120020B903480068401C0249B4
:1008200008607047000000200400002010B5002080
:100830004FF0E02108611B48486100208861401E9C
:100840000121002804DB0A07130E174A135406E09F
:100850000A07140E154A00F00F031B1FD45400BFE3
:100860004FF0FF30002809DB00F01F02012191400A
:100870004209920002F1E022C2F8001100BF4FF0DD
:10088000E020006940F002004FF0E02108610846D6
:10089000006940F0040008610846006940F001006A
:1008A000086110BD1F48010000E400E018ED00E001
:1008B0001448006840F4700012490860124800684B
:1008C00040F001001049086000200F49083108601D
:1008D0000D4800680D4908400B4908600C48091D87
:1008E0000860081F006820F48020091F08600020AD
:1008F00005490C3108604FF00060024980390860FA
:100900007047000088ED00E000380240FFFFF6FE6F
:1009100010300024FFF76CFEFFF788FFFFF7E4FEBE
:10092000022300220D210748FFF7FEFC09E00648DC
:1009300000680A2190FBF1F201FB12042046FFF748
:1009400001FFF4E700080240040000204FF040706F
:10095000E1EE100A7047000078090008000000204E
:1009600008000000D40100088009000808000020E9
:1009700060060000F0010008000000000000000018
:040000050800019955
:00000001FF
