:020000040800F2
:100000006806002039020008410200084302000887
:1000100045020008470200084902000800000000ED
:100020000000000000000000000000004B0200087B
:100030004D020008000000004F0200080D070008F4
:10004000530200085302000853020008530200083C
:10005000530200085302000853020008530200082C
:10006000530200085302000853020008530200081C
:10007000530200085302000853020008530200080C
:100080005302000853020008530200080000000059
:100090000000000000000000000000005302000803
:1000A00053020008530200085302000853020008DC
:1000B00053020008530200085302000853020008CC
:1000C00053020008530200085302000853020008BC
:1000D0005302000853020008530200080000000009
:1000E000F502000853020008530200080000000057
:1000F00000000000000000000000000053020008A3
:1001000000000000530200085302000853020008D8
:1001100000000000000000000000000000000000DF
:10012000530200085302000853020008530200085B
:100130005302000800000000000000000000000062
:100140000000000000000000000000005302000852
:10015000530200085302000853020008530200082B
:1001600053020008530200080000000000000000D5
:10017000000000000000000000000000000000007F
:100180000000000053020008000000000000000012
:10019000530200085302000800F002F800F03CF897
:1001A0000AA090E8000C82448344AAF10107DA45D2
:1001B00001D100F031F8AFF2090EBAE80F0013F0E8
:1001C000010F18BFFB1A43F001031847DC050000BC
:1001D000FC050000103A24BF78C878C1FAD852074D
:1001E00024BF30C830C144BF04680C6070470000B1
:1001F0000023002400250026103A28BF78C1FBD830
:10020000520728BF30C148BF0B6070471FB500F0D0
:10021000C5FA1FBD10B510BD00F031F81146FFF74B
:10022000F5FF00F0ADFA00F04FF803B4FFF7F2FF6E
:1002300003BC00F057F80000094880470948004710
:10024000FEE7FEE7FEE7FEE7FEE7FEE7FEE7FEE786
:10025000FEE7FEE704480549054A064B70470000E3
:100260001D070008990100086800002068060020AA
:10027000680200206802002070477047704775468A
:1002800000F02CF8AE4605006946534620F0070002
:10029000854618B020B5FFF7DDFFBDE820404FF0E0
:1002A00000064FF000074FF000084FF0000B21F060
:1002B0000701AC46ACE8C009ACE8C009ACE8C0092D
:1002C000ACE8C0098D46704710B50446AFF3008016
:1002D0002046BDE81040FFF7A8BF00000048704767
:1002E0000400002001491820ABBEFEE726000200F2
:1002F0007047000010B50848006800F40050B0F5E1
:10030000005F07D100F068F90348006840F400502E
:100310000149086010BD0000143C01402DE9F04F78
:100320001E464FF0000C0027002398466A4CA0425E
:1003300002D14FF0010C16E0684CA04204D14FF0FE
:10034000020C4FF001080EE0654CA04204D14FF0C2
:10035000040C4FF0020806E0624CA04203D14FF0BB
:10036000080C4FF00308052901DA8F1D04E00A2963
:1003700001DA172700E028270C46CD1701EB957509
:10038000AB10594C246844EA0C04574D2C600468A7
:100390004FEA41096FF0030505FA09F52C400460A6
:1003A000C4684FEA41096FF0030505FA09F52C40CE
:1003B000C4607CB2002C0CDB04F01F09012505FA97
:1003C00009F54FEA54194FEA890909F1E029C9F8FA
:1003D000005100BF7CB23546002C08DB4FEA05799E
:1003E0004FEA196ADFF8049109F804A00BE04FEA1C
:1003F00005794FEA196BDFF8F89004F00F0AAAF1BB
:10040000040A09F80AB000BF374C1434246844F4D5
:100410008044354D14352C60364D55F823500C462C
:100420004FEAE17901EB99794FEAA909A1EB890932
:100430004FEA890A4FF00F0909FA0AF925EA090576
:10044000DFF8B09049F823504D4655F823504FEA55
:10045000E17901EB99794FEAA909A1EB89094FEA02
:10046000890908FA09F945EA0905DFF8889049F889
:100470002350214C246801258D402C431E4D2C60B7
:100480004AB91D4C0C34246801258D402C431A4D6B
:100490000C352C601EE0012A09D1174C0834246861
:1004A00001258D402C43144D08352C6012E0022AA2
:1004B00010D1114C0834256801248C4025430E4C82
:1004C00008342560241D246801258D402C430A4DE5
:1004D0000C352C60BDE8F08F0000024000040240A3
:1004E00000080240000C02403038024000E400E006
:1004F00018ED00E008380140003C014070B50023D1
:100500002B4CA04201D101230DE02A4CA04201D185
:10051000022308E0284CA04201D1042303E0274C29
:10052000A04200D10823012A28D1254C24681C436D
:10053000234D2C6004684E000325B540AC43046095
:1005400004684D0002FA05F52C43046084684E00EF
:100550000325B540AC43846084684E000225B54055
:100560002C438460456801248C40A5434560C468E1
:100570004E000325B540AC43C46017E0B2B9104C3F
:1005800024681C430E4D2C6004684E000325B540C2
:10059000AC43046004684D0002FA05F52C43046086
:1005A000C4684E000225B5402C43C46070BD0000F5
:1005B000000002400004024000080240000C02401B
:1005C0003038024000B5012205210248FFF796FFAE
:1005D00000BD0000000002400348406980F0200098
:1005E0000149486170470000000002404549096820
:1005F00021F00F01434A11601146096841F00201E0
:1006000011604149096841F001013F4A116000BF92
:100610003D49096801F002010029F9D010203A494A
:10062000096821F0F801384A11601146096841EA69
:10063000C00111601146096821F08071116000BF8E
:100640003149096801F00071B1F1007FF8D02E49FD
:10065000091D096821F480012B4A121D1160114601
:10066000096811601146096847F6C072914341F468
:10067000A851254A121D11601146096821F03F0159
:1006800041F0080111601146096821F44031116000
:10069000111F096841F08071121F116000BF1A49D3
:1006A000096801F000710029F9D01749083109687B
:1006B00021F00301144A083211601146096841F023
:1006C0000201116000BF10490831096801F00C01F6
:1006D0000829F8D10C490831096821F0F0010A4ACB
:1006E000083211601146096821F4E0511160114689
:1006F000096841F4805111601146096821F4604194
:1007000011607047003C0240003802400248006817
:10071000401C014908607047000000201448006830
:1007200040F47000124908601248006840F001006F
:100730001049086000200F49083108600D48006822
:100740000D4908400B4908600C48091D0860081F46
:10075000006820F48020091F0860002005490C3142
:1007600008604FF00060024980390860704700005F
:1007700088ED00E000380240FFFFF6FE1030002454
:10078000FFF734FFFFF71EFF00231A460D21024832
:10079000FFF7C4FD00BFFEE7000802404FF04070C5
:1007A000E1EE100A70470000C807000800000020B2
:1007B00004000000D4010008CC0700080400002059
:0C07C00064060000F001000800000000CA
:040000050800019955
:00000001FF
