:020000040800F2
:10000000700600203902000841020008430200087F
:1000100045020008470200084902000800000000ED
:100020000000000000000000000000004B0200087B
:100030004D020008000000004F02000805050008FE
:10004000530200085302000853020008530200083C
:10005000530200085302000853020008530200082C
:10006000530200085302000853020008530200081C
:10007000530200085302000853020008530200080C
:100080005302000853020008530200080000000059
:100090000000000000000000000000005302000803
:1000A00053020008530200085302000853020008DC
:1000B00079050008530200085302000853020008A3
:1000C00053020008530200085302000853020008BC
:1000D0005302000853020008530200080000000009
:1000E00053020008530200085302000800000000F9
:1000F00000000000000000000000000053020008A3
:1001000000000000530200085302000853020008D8
:1001100000000000000000000000000000000000DF
:10012000530200085302000853020008530200085B
:100130005302000800000000000000000000000062
:100140000000000000000000000000005302000852
:10015000530200085302000853020008530200082B
:1001600053020008530200080000000000000000D5
:10017000000000000000000000000000000000007F
:100180000000000053020008000000000000000012
:10019000530200085302000800F002F800F03CF897
:1001A0000AA090E8000C82448344AAF10107DA45D2
:1001B00001D100F031F8AFF2090EBAE80F0013F0E8
:1001C000010F18BFFB1A43F0010318479C040000FD
:1001D000BC040000103A24BF78C878C1FAD852078E
:1001E00024BF30C830C144BF04680C6070470000B1
:1001F0000023002400250026103A28BF78C1FBD830
:10020000520728BF30C148BF0B6070471FB500F0D0
:1002100025FA1FBD10B510BD00F031F81146FFF7EB
:10022000F5FF00F0EFF900F04FF803B4FFF7F2FF2D
:1002300003BC00F057F80000094880470948004710
:10024000FEE7FEE7FEE7FEE7FEE7FEE7FEE7FEE786
:10025000FEE7FEE704480549054A064B70470000E3
:1002600015050008990100087000002070060020A4
:10027000700200207002002070477047704775467A
:1002800000F02CF8AE4605006946534620F0070002
:10029000854618B020B5FFF7DDFFBDE820404FF0E0
:1002A00000064FF000074FF000084FF0000B21F060
:1002B0000701AC46ACE8C009ACE8C009ACE8C0092D
:1002C000ACE8C0098D46704710B50446AFF3008016
:1002D0002046BDE81040FFF7A8BF00000048704767
:1002E0000C00002001491820ABBEFEE726000200EA
:1002F0007047000070B500232B4CA04201D10123B0
:100300000DE02A4CA04201D1022308E0284CA04273
:1003100001D1042303E0274CA04200D10823012A85
:1003200028D1254C24681C43234D2C6004684E00C2
:100330000325B540AC43046004684D0002FA05F59E
:100340002C43046084684E000325B540AC438460B0
:1003500084684E000225B5402C4384604568012422
:100360008C40A5434560C4684E000325B540AC43AE
:10037000C46017E0B2B9104C24681C430E4D2C60C9
:1003800004684E000325B540AC43046004684D008A
:1003900002FA05F52C430460C4684E000225B540FE
:1003A0002C43C46070BD0000000002400004024005
:1003B00000080240000C02403038024000B5012223
:1003C00005210248FFF796FF00BD00000000024033
:1003D0000348406980F020000149486170470000EF
:1003E000000002404549096821F00F01434A1160AD
:1003F0001146096841F0020111604149096841F064
:1004000001013F4A116000BF3D49096801F0020146
:100410000029F9D010203A49096821F0F801384A3A
:1004200011601146096841EAC0011160114609686E
:1004300021F08071116000BF3149096801F000713D
:10044000B1F1007FF8D02E49091D096821F480011F
:100450002B4A121D11601146096811601146096886
:1004600047F6C072914341F4A851254A121D11600C
:100470001146096821F03F0141F008011160114661
:10048000096821F440311160111F096841F0807141
:10049000121F116000BF1A49096801F0007100299C
:1004A000F9D017490831096821F00301144A0832CC
:1004B00011601146096841F00201116000BF104946
:1004C0000831096801F00C010829F8D10C490831FC
:1004D000096821F0F0010A4A0832116011460968E2
:1004E00021F4E05111601146096841F48051116016
:1004F0001146096821F4604111607047003C0240D8
:100500000038024002480068401C014908607047FA
:10051000080000201448006840F470001249086088
:100520001248006840F001001049086000200F499F
:10053000083108600D4800680D4908400B49086003
:100540000C48091D0860081F006820F48020091F5E
:100550000860002005490C3108604FF00060024936
:10056000803908607047000088ED00E000380240E4
:10057000FFFFF6FE1030002410B54FF080400069F8
:1005800000F00100D8B10E480068401C0C4908601A
:1005900008460068B0F57A7F09D1FFF719FF0948CE
:1005A0000068401C074908600020054908604FF0BA
:1005B0008040006920F001004FF08041086110BDCB
:1005C00000000020040000200D48006840F00100F9
:1005D0000B4908600806006820F010000906086052
:1005E00040F2473088626320C8620846C06840F025
:1005F0000100C8600846006840F0010008607047CC
:1006000040380240FFF7EEFEFFF7D8FEFFF7DCFFB1
:100610001C20002809DB00F01F0201219140420943
:10062000920002F1E022C2F8001100BF1C2002215A
:10063000002804DB0A07130E064A135406E00A07D3
:10064000140E054A00F00F031B1FD45400BF00BF57
:10065000FEE7000000E400E018ED00E04FF040701D
:10066000E1EE100A70470000880600080000002034
:100670000C000000D4010008940600080C000020C3
:1006800064060000F0010008000000000000000007
:040690000000000066
:040000050800019955
:00000001FF
