:020000040800F2
:10000000600600201D0200082502000827020008E3
:10001000290200082B0200082D0200080000000041
:100020000000000000000000000000002F02000897
:100030003102000800000000330200083502000809
:1000400037020008370200083702000837020008AC
:10005000370200083702000837020008370200089C
:10006000370200083702000837020008370200088C
:10007000370200083702000837020008370200087C
:1000800037020008370200083702000800000000AD
:10009000000000000000000000000000370200081F
:1000A000370200083702000837020008370200084C
:1000B000370200083702000837020008370200083C
:1000C000370200083702000837020008370200082C
:1000D000370200083702000837020008000000005D
:1000E000370200083702000837020008000000004D
:1000F00000000000000000000000000037020008BF
:10010000000000003702000837020008370200082C
:1001100000000000000000000000000000000000DF
:1001200037020008370200083702000837020008CB
:10013000370200080000000000000000000000007E
:10014000000000000000000000000000370200086E
:10015000370200083702000837020008370200089B
:10016000370200083702000800000000000000000D
:10017000000000000000000000000000000000007F
:10018000000000003702000800000000000000002E
:10019000370200083702000800F002F800F02EF8DD
:1001A0000AA090E8000C82448344AAF10107DA45D2
:1001B00001D100F023F8AFF2090EBAE80F0013F0F6
:1001C000010F18BFFB1A43F0010318475805000040
:1001D000680500000023002400250026103A28BFEF
:1001E00078C1FBD8520728BF30C148BF0B607047A9
:1001F0001FB500F091FA1FBD10B510BD00F0CCF88E
:100200001146FFF7F5FF00F05DFA00F0EAF803B4DD
:10021000FFF7F2FF03BC00F0F1F800000948804747
:1002200009480047FEE7FEE7FEE7FEE7FEE7FEE7D8
:10023000FEE7FEE7FEE7FEE704480549054A064BF0
:100240007047000061060008990100086000002066
:1002500060060020600200206002002010B54C10F3
:1002600084EA530404D54042C1F1000138BF491E5D
:100270001B4204D55242C3F1000338BF5B1E00F09D
:1002800014F814F0804F04D04042C1F1000138BF8F
:10029000491E14F0004F04D05242C3F1000338BF8E
:1002A0005B1E10BD70477047704753EA020C00F0A8
:1002B00069802DE9F04B4FF00006002B1FBFB3FA09
:1002C00083F503FA05F424FA05F65E4012BF1643DF
:1002D000B2FA82F502FA05F4C5F120051EBF22FA32
:1002E00005FC44EA0C04203556EA044C4FEA144459
:1002F00018BF641C4FF000084FF00009904271EBEA
:10030000030C39D3002919BFB1FA81F701FA07F6B6
:10031000B0FA80F700FA07F6C7F120071EBF20FAEF
:1003200007FC46EA0C062037B6FBF4FCA7EB0507F2
:10033000103F07F01F0BCBF120060CFA0BFB2CFA39
:1003400006F644BFB3460026202FA4BF5E464FF0FA
:10035000000B5BEA060C08BF4FF0010B19EB0B0911
:10036000ABFB027C48EB0608C01B06FB02CC0BFB78
:1003700003CC71EB0C01C1E70B46024641464846EF
:10038000BDE8F08B13B54FF000004FF00001AFF364
:100390000080BDE81C407047754600F02BF8AE4663
:1003A00005006946534620F00700854618B020B581
:1003B000FFF742FFBDE820404FF000064FF0000776
:1003C0004FF000084FF0000B21F00701AC46ACE8FD
:1003D000C009ACE8C009ACE8C009ACE8C0098D466A
:1003E000704710B50446AFF300802046BDE81040CA
:1003F000FFF70DBF0048704700000020014918209A
:10040000ABBEFEE7260002007047000070B5002377
:100410002B4CA04201D101230DE02A4CA04201D176
:10042000022308E0284CA04201D1042303E0274C1A
:10043000A04200D10823012A28D1254C24681C435E
:10044000234D2C6004684E000325B540AC43046086
:1004500004684D0002FA05F52C43046084684E00E0
:100460000325B540AC43846084684E000225B54046
:100470002C438460456801248C40A5434560C468D2
:100480004E000325B540AC43C46017E0B2B9104C30
:1004900024681C430E4D2C6004684E000325B540B3
:1004A000AC43046004684D0002FA05F52C43046077
:1004B000C4684E000225B5402C43C46070BD0000E6
:1004C000000002400004024000080240000C02400C
:1004D000303802400246106901238B401840C84062
:1004E000704710B5012A05D1436901248C4023438C
:1004F000436105E022B9446901238B409C43446178
:1005000010BD00001048006840F001000E4908606E
:1005100000BF0D48006800F002000028F9D00A482A
:100520000830006820F003000749083108600846D9
:100530000068086000BF04480830006800F00C0044
:100540000028F8D1704700000038024000B50122B1
:1005500005211348FFF75AFF012206211048FFF733
:1005600055FF012207210E48FFF750FF0122062107
:100570000C48FFF74BFF012207210B48FFF746FF0E
:10058000012209210648FFF741FF01220821044802
:10059000FFF73CFF01220A210248FFF737FF00BDA9
:1005A00000000240000402400008024030B5054649
:1005B000092D00DD002500240A2D1AD2DFE805F000
:1005C0000507090B0D0F11131517032411E09F24C4
:1005D0000FE025240DE00D240BE0992409E04924C7
:1005E00007E0412405E01B2403E0012401E0092485
:1005F00000BF00BFE20905211648FFF772FFC4F3F0
:10060000801206211348FFF76CFFC4F34012072144
:100610001048FFF766FFC4F3001206210E48FFF7EB
:1006200060FFC4F3C00207210C48FFF75AFFC4F370
:10063000800209210748FFF754FFC4F34002082154
:100640000448FFF74EFF04F001020A210248FFF7B9
:1006500048FF30BD00000240000402400008024094
:100660001448006840F4700012490860124800689D
:1006700040F001001049086000200F49083108606F
:100680000D4800680D4908400B4908600C48091DD9
:100690000860081F006820F48020091F08600020FF
:1006A00005490C3108604FF000600249803908604C
:1006B0007047000088ED00E000380240FFFFF6FEC2
:1006C00010300024FFF71EFF00220D211048FFF715
:1006D0009DFEFFF73BFF00200446054617E00A2277
:1006E000002320462946FFF7B9FD16463046FFF79E
:1006F0005DFF0D210648FFF7EDFE10B9641C45F1C2
:100700000005002000E0401C02498842FBDBE6E7D0
:100710000008024020A107004FF04070E1EE100AEF
:100720007047000034070008000000206006000049
:04073000D4010008E8
:040000050800019955
:00000001FF
