:020000040800F2
:100000008006002051020008590200085B02000827
:100010005D0200085F0200086102000800000000A5
:100020000000000000000000000000006302000863
:100030006502000800000000670200089918000827
:100040006B0200086B0200086B0200086B020008DC
:100050006B0200086B0200086B0200086B020008CC
:100060006B0200086B0200086B0200086B020008BC
:100070006B0200086B0200086B0200086B020008AC
:100080006B0200086B0200086B0200080000000011
:100090000000000000000000000000006B020008EB
:1000A0006B0200086B0200086B0200086B0200087C
:1000B000991900086B0200086B0200086B02000827
:1000C0006B0200086B0200086B0200086B0200085C
:1000D0006B0200086B020008611D000800000000B0
:1000E0006B0200086B0200086B02000800000000B1
:1000F0000000000000000000000000006B0200088B
:10010000000000006B0200086B0200086B02000890
:1001100000000000000000000000000000000000DF
:100120006B0200086B0200086B0200086B020008FB
:100130006B0200080000000000000000000000004A
:100140000000000000000000000000006B0200083A
:100150006B0200086B0200086B0200086B020008CB
:100160006B0200086B0200080000000000000000A5
:10017000000000000000000000000000000000007F
:10018000000000006B0200080000000000000000FA
:100190006B0200086B02000800F002F800F049F85A
:1001A0000AA090E8000C82448344AAF10107DA45D2
:1001B00001D100F03EF8AFF2090EBAE80F0013F0DB
:1001C000010F18BFFB1A43F001031847C4260000B3
:1001D000E4260000103A24BF78C878C1FAD8520744
:1001E00024BF30C830C144BF04680C6070470000B1
:1001F0000023002400250026103A28BF78C1FBD830
:10020000520728BF30C148BF0B607047662902F013
:10021000F382002070471FB502F0E9FA00F0F0FA0F
:1002200004000020002101F06FFFE0601FBD10B549
:1002300010BD00F001FC1146FFF7EDFF01F0E0FEFC
:1002400000F01FFC03B4FFF7F2FF03BC00F062FCF8
:100250000948804709480047FEE7FEE7FEE7FEE75A
:10026000FEE7FEE7FEE7FEE7FEE7FEE70448054996
:10027000054A064B7047000035190008990100082F
:1002800080000020800600208002002080020020E4
:100290000FB4044910B503AA029800F09FFA10BCED
:1002A0005DF814FB040000202DE9F0474FF0000A30
:1002B00089460446C0F820A02046E1688847002807
:1002C00076D0252806D0D4E901219047206A401C29
:1002D0002062F1E7E168204600258847C4F81CA0A9
:1002E00006460027C4F818A02A2E09D0304601F08F
:1002F00063FE38B304EB8708303EC8F8186019E095
:1003000059F8041B204604EB87029161E168884795
:10031000012F064618D1E069002820DA25F02005D3
:100320001DE0D8F8180000EB800006EB40003038E4
:10033000C8F818002046E1688847064601F03CFEF0
:100340000028EED1012F0AD02E2E08D12046E168D8
:1003500088477F1C0646022F45F02005C4DBA069B4
:10036000002803DA404245F00105A061E80701D00A
:1003700025F01005B6B1A6F14100192802D82036A3
:1003800045F400654A463146204625604D46FFF754
:100390003DFF58B1012806D0ED1D25F0070000F102
:1003A000080989E704E005F1040985E730468AE792
:1003B000206ABDE8F08770477047704770472DE9A5
:1003C000FF4F0C461E464FF0FF378BB0D2E90001BD
:1003D000DDF860800A908A46C1F30A5505B93D46AA
:1003E000002108464FF00000BAF1000F00F4400071
:1003F00005DA00EB80004FF4400101EA50004FEABB
:100400009059B9F1010F00DDB9460A9850EA4A0047
:100410000ED044F61050A5F2FF3545432F14B8F125
:10042000000F1ED07542291E1EDDC9F100021CE01E
:10043000B8F1010F4FF0000001D0302103E0F2438A
:1004400005E02154401CB042FBDB30460022002175
:1004500021540B99C1F80880C1E900200FB0BDE814
:10046000F08FBD1B6D1CDEE74A4600DA694206A824
:1004700000F068FA06AB93E8070003AB83E80700D7
:1004800050460A9900F04DFB8DE80700A0F500509A
:100490001F3800900398002D0ADD42F21F014A46E2
:1004A0000844002303A90390684600F0B6FD09E064
:1004B000A0F500504A461F38002303A90390684660
:1004C00000F0C0FD8DE807000004000C03D04FF0E1
:1004D000FF30410800E01046B8F1000F03D00022C1
:1004E000009215461EE0751E05D400F08DF93032DD
:1004F00062556D1EF9D5B3460122084302D0002291
:100500007F1C04E02078302801D100227F1E002AC1
:10051000099784D01DE0112D07DA00F075F930320B
:1005200062556D1C50EA0102F5D1084302D00098D3
:10053000C8B10EE00021681E05E0235C625C6354D4
:100540002254401E491C8142F7DBAB46A81B401ECB
:100550000990002004F80B000B98099AC0F8088055
:10056000C0E9002B7AE711264FF0000857E72DE984
:10057000F04F88460446D21D22F0070191B0D1E920
:100580000001CDE90A0101F08DFC02460B98C00F75
:1005900001D02D2007E02068810701D52B2002E043
:1005A000202101EAC000032A099001D0072A05DBB7
:1005B00003464146204600F085F90BE1207880068D
:1005C00001D5E06900E00620B8F1650F814606D04C
:1005D000B8F1660F18D0B8F1670F70D131E0002084
:1005E000B9F1110F009001DB112301E009F10103C2
:1005F0000AAA01A90CA8FFF7E2FEDDE90C700026AB
:1006000009F10105834647E001204B4600904FF079
:1006100000470AAA01A90CA8FFF7D1FEDDE90DB039
:100620000C995D46002610B909F101000D18B9EBCF
:10063000050003D4C0F1FF3609F10105A5EB09005F
:100640002BE0B9F1010F01DA4FF001090020B9F1F7
:10065000110F0090484601DD112300E003460AAA6D
:1006600001A90CA8FFF7ABFEDDE90C704D46002692
:100670008346207800070AD4AB4500DA5D4601A81E
:10068000012D04DD411911F8011C302907D04F4517
:1006900002DA17F1040F04DA012082460FE06D1E22
:1006A000EEE7002F02DCED1B3E4403E0781CA8427D
:1006B00000DD7D1CB81B00F1010A4FF000472078D7
:1006C000000703D4AA4501DB4FF0FF3A0021B7F140
:1006D000004F0DF143088DF8431024D002202B2346
:1006E000002F01DA7F422D230A21021EA0F1010012
:1006F00000DC5FB197FBF1FC97FBF1F201FB1C7C86
:1007000017460CF1300C08F801CDEEE7A8F1010016
:1007100003702188090501D5452100E06521A0F17C
:10072000010800F8011C09980FA9A1EB0807FF1D9B
:1007300000B10120411901EBEA70A1693844081A9F
:10074000401EA0612078C00602D42046AFF300808E
:10075000099828B1D4E901219047206A401C206201
:100760002078C00622D52046AFF300801EE0002E80
:1007700004DBB34502DD01A8805D00E03020D4E950
:1007800001219047206A401C2062761CAAF10100DA
:100790005FEA000A0AD100F033F8C0680168405CE3
:1007A000D4E901219047206A401C2062281EA5F14F
:1007B0000105DCDC07E0D4E9012118F8010B9047C2
:1007C000206A401C2062381EA7F10107F3DC204696
:1007D000AFF30080032011B041E60000074B70B575
:1007E0000D467B4400F05BF80446284600F01CF9F7
:1007F00010B14FF0FF3070BD204670BDFF170000F4
:10080000004870473C00002030B5B0F10A024FEAC2
:10081000900E71F100034EEA817EB0EB0E0061EBA9
:1008200091014FEA101E4EEA017E10EB0E0041EBE3
:1008300011114FEA102E4EEA016E10EB0E0041EB43
:1008400011214FEA104E4EEA014E10EB0E0041EB23
:100850001141401841F100014FEAD00040EA4170D7
:100860004FEAD10110EB80054FEA810444EA90740D
:1008700044EB01046D1944EB0404521BA3414FF0F7
:10088000000348BF0A3200D530BD401C41F10001D1
:1008900030BD000001694A1C02610878704700B54C
:1008A0008FB0CDE901310021059105497944CDE9A9
:1008B000031011466846FFF7F7FC0FB000BD0000BB
:1008C000E5FFFFFF2DE9F0411F46044603260168BE
:1008D000072A01F4006004DB08B116A505E016A59F
:1008E00003E008B115A500E015A521F01000206077
:1008F000A069C01EA0610FB1401EA0612046AFF3E9
:1009000000804FB1D4E9012138469047206A401C4D
:100910002062C01C206206E0206AFAE7D4E90121C7
:1009200015F8010B9047761EF8D22046AFF30080F1
:10093000BDE8F0814E414E006E616E00494E4600AA
:10094000696E66002DE9F047814616468AB0354843
:1009500078440DC88DE80D0032487844801C03AC03
:100960000DC884E80D0041F69B300844372190FB08
:10097000F1F290FBF1F5A5F1800501FB12041B3C9F
:1009800002D56442012000E00020DFF898A08046F4
:100990000027FA44AAF1BE0A0EE0E0070AD0324668
:1009A000684607EB470101230AEB810100F04AFB8F
:1009B0008DE8070064107F1C002CEED1194F7F4496
:1009C000AE3F19E0E80715D007EB04100DF1180A47
:1009D00090E80E008AE80E00C068F04201D1981934
:1009E00008903246012306A903A800F02BFB03ABB5
:1009F00083E807006D10641C002DE3D14FF0010364
:100A000032466946B8F1000F03A802D000F005FB9A
:100A100001E000F017FBC9E90001C9F808200AB09D
:100A2000BDE8F087241F0000007B00F080007047C5
:100A3000004870471C0000207546FFF7F9FFAE46DE
:100A400005006946534620F00700854618B020B5DA
:100A5000FFF70CFCBDE820404FF000064FF0000708
:100A60004FF000084FF0000B21F00701AC46ACE856
:100A7000C009ACE8C009ACE8C009ACE8C0098D46C3
:100A8000704710B50446AFF300802046BDE8104023
:100A9000FFF7D8BB4FF0013C50F8042B51F8043B52
:100AA0009A4221D1A2EB0C03934313EACC1317D142
:100AB00050F8042B51F8043B9A4215D1A2EB0C03D9
:100AC000934313EACC130BD150F8042B51F8043B99
:100AD0009A4209D1A2EB0C03934313EACC13DBD067
:100AE0004FF00000704700BFD01A01BAB1FA81F18F
:100AF00001F0180122FA01F0CB40C1F12001DBB274
:100B0000C0B2C01A2CFA01F3D11A914311EAC311F1
:100B1000E6D1704701491820ABBEFEE7260002006F
:100B200070475FEA400C08BF91F0000F4FEA8C233A
:100B30004FEAC12243EA51514FEA1C5018BF00F559
:100B4000F0404FEA300018BF41F000415FEA6C5CB2
:100B500000F02980BCF1FF3F08BF40F080407047A3
:100B6000130C06BF12044FF0100C4FF0000C130EC4
:100B700004BF12020CF1080C130F04BF12010CF198
:100B8000040C930F04BF92000CF1020CD30F04BFAE
:100B900052000CF1010C11464FF00002A0F11F00B1
:100BA000A0EB0C00704711F0004F08BF704731F008
:100BB00000413FF4D5AF0B0C06BF09044FF0100CF9
:100BC0004FF0000C0B0E04BF09020CF1080C0B0FC8
:100BD00004BF09010CF1040C8B0F04BF89000CF158
:100BE000020CCB0F04BF49000CF1010CCCF1200327
:100BF000A0EB0C0022FA03F302FA0CF241EA030123
:100C000000F10100704720F07F4C80EA030023F0E0
:100C10007F47ACEB070303F57C5300F0004003F182
:100C2000FF032DE980494FEA154B09B44FEA1443FD
:100C300025EA0B4E24EA03480FF2042606EB13279D
:100C400049083E785FEA320203FB0667C7F50007F2
:100C500007FB06F64FEA54374FEAD64606F102067E
:100C600007FB066CCCF1005C4FEA1C472CEA074CF2
:100C700007FB06F40CFB06F504EB15464FEA961647
:100C800034BF00204FF000404FEAD13706FB07FC8D
:100C90004FEA1C4C0CFB0BF7D21B03FB0CF761EB70
:100CA00007010CFB0EF7B0EB074072EB17420CFB91
:100CB00008F734BFA2EB0742B2EB074261EB1741E2
:100CC0004FEA0C444FEA910706FB07FC4FEA1C4C25
:100CD0000CFB0BF7B0EBC74072EB573203FB0CF782
:100CE00034BFA2EBC742B2EBC74261EB57310CFBFA
:100CF0000EF7B0EBC70072EB57720CFB08F734BF6E
:100D0000A2EBC702B2EBC70261EB5771039F4FEA38
:100D1000816141EA921104EBCC044FEAD1374FEAEA
:100D2000826206FB07FC42EA90124FEA80604FEABB
:100D30001C4C0CFB0BF7D21B03FB0CF761EB070100
:100D40000CFB0EF7B0EB074072EB17420CFB08F7F9
:100D500034BFA2EB0742B2EB074261EB17414FEA07
:100D60008C554FEA910704EB9C2406FB07FC4FEAE5
:100D70001C4C0CFB0BF7B0EBC74072EB573203FB7C
:100D80000CF734BFA2EBC742B2EBC74261EB57315D
:100D90000CFB0EF7B0EBC70072EB57720CFB08F7B9
:100DA00034BFA2EBC702B2EBC70261EB577115EB80
:100DB0004C254FEA816141EA92114FEA82624FEA83
:100DC000D13742EA901206FB07FC44F100044FEAD7
:100DD00080604FEA1C4C0CFB0BF7D21B03FB0CF79B
:100DE00061EB07010CFB0EF7B0EB074072EB17420B
:100DF0000CFB08F734BFA2EB0742B2EB074261EBF2
:100E0000174115EB1C154FEA813141EA92414FEA37
:100E1000823242EA90424FEA80304FEA0C7644F147
:100E2000000448EA03434EEA0B484FF0000EB2EBD1
:100E3000080C71EB030724BF624639464EEB0E0ED9
:100E40004FF0000B0018524149414BEB0B0BB2EB3A
:100E5000080C71EB03077BF1000B24BF6246394697
:100E60004EEB0E0E4FF0000B0018524149414BEB78
:100E70000B0BB2EB080C71EB03077BF1000B24BFEB
:100E8000624639464EEB0E0E51EA020718BF46F095
:100E9000010616EB0E7655F1000254F1000103D560
:100EA000BDE88901BDE80088BDE88901BDE80048CA
:100EB000B619524141EB0101A3F101037047808053
:100EC0007F7E7D7C7B7A79787776767574737271A4
:100ED00071706F6E6E6D6C6C6B6A6A69686867665C
:100EE00066656464636362616160605F5F5E5E5DEE
:100EF0005D5C5C5B5B5A5A59595858575756565562
:100F000055555454535352525251515050504F4FC3
:100F10004F4E4E4D4D4D4C4C4C4B4B4B4A4A4A4913
:100F20004949484848474747474646464545454456
:100F30004444444343434342424242414141002BE3
:100F40009C4630D477002BD01CB54FEA370703B44A
:100F50004FF010004FF01001BAF1000F06D0BCF1B5
:100F6000000FDCBF40F0080040F008014FF0000027
:100F70000FBCBDE810400BF1010BBBF1010F08BF26
:100F80005FEA170722BF12F1010211F101014FF0D0
:100F9000004143F1000300F0004043EA00007047C5
:100FA000F9D35708D0E746EA064613F1400F4FEA57
:100FB00016461FDD13F1200FDFBF16430A4600213E
:100FC00020335B42BED0C3F1200746EA064602FA50
:100FD00007F74FEA164646EA0706C3F1200722FA4A
:100FE00003F201FA07F721FA03F14FF0000342EA96
:100FF0000702A7E746EA020646EA06464FEA164611
:1010000046EA0106BCBF46EA0646360C4FF000032E
:101010004FF000024FF0000194E72DE9804C9A4612
:10102000934670B491E8380007C831EA400C48BFD5
:1010300034EA430C03D5FFF7E6FDFFF780FFF0BC71
:10104000BDE8008C2DE9804C9A46934670B491E837
:10105000380007C810F0804F08BF13F0804F03D14D
:1010600000F005F8FFF76BFFF0BCBDE8008C20F046
:101070007F4780EA030023F07F4C07EB0C03A3F5C6
:101080007C5300F00040A3F1FE0392F0000F00F04B
:10109000B38095F0000F00F077802DE901494FEA09
:1010A00011404FEA144621EA004800FB06FC24EAFE
:1010B000064708FB06F607FB08F800FB07F718EBE6
:1010C00006484CEB164C4FEA124B18EB07484FEA18
:1010D00015464CEB174022EA0B4E0BFB06FC25EAAB
:1010E00006470EFB06F607FB0EFE0BFB07F71EEB93
:1010F000064E4CEB164C4FF000061EEB074E4CEB29
:10110000174B18EB0B0840F1000018EB0E0B58EBD7
:10111000000840F100008F1A4FF000013CBFC943A6
:10112000661B14BFB5EB040C00213CBFC943F61B82
:101130004FEA17444EEA8E0E27EA04454FEA1C4751
:1011400004FB07622CEA074C05FB07F70CFB05F6CE
:1011500004FB0CFC16EB074642EB174216EB0C4661
:1011600042EB1C421BEB060658EB0202414146EAE9
:101170009E0601D5BDE80189B619524141EB010136
:10118000A3F10103BDE801894FEA14454FEA114775
:1011900024EA054621EA074C05FB07F406FB07F79E
:1011A0000CFB06F105FB0CFC11EB074144EB17446B
:1011B0004FEA124711EB0C4144EB1C4422EA074C66
:1011C00005FB07F206FB07F70CFB06F605FB0CFC1C
:1011D00016EB074642EB174216EB0C4642EB1C455A
:1011E0006A1854F1000148BF7047B619524141EBEB
:1011F0000101A3F10103704795F0000F37D04FEACA
:1012000011424FEA144721EA024624EA074C02FB46
:1012100007F106FB07F70CFB06F402FB0CFC14EBD2
:10122000074441EB17414FEA154714EB0C4441EBDF
:101230001C4125EA074C02FB07F506FB07F70CFBF0
:1012400006F602FB0CFC16EB074645EB174516EBC2
:101250000C4645EB1C42121951F1000148BF704782
:10126000B619524141EB0101A3F1010370474FEA66
:1012700014454FEA114724EA054621EA074C05FBCD
:1012800007F106FB07F70CFB06F24FF0000605FB23
:101290000CFC12EB074241EB174112EB0C4251EBF5
:1012A0001C4148BF7047921841EB0101A3F10103B3
:1012B000704700002DE9F04307460E4615463E6094
:1012C0007D60384600F024FCBC68D7F80C804FF0F5
:1012D00000096148844217D14FF01B092846E917DD
:1012E00005EB5171C910A5EBC1018A0001219140A4
:1012F000EB1006F1200252F823201143EB1006F107
:10130000200242F8231034E0B4F1804F17D14FF09F
:101310001C092846E91705EB5171C910A5EBC1015D
:101320008A0001219140EB1006F1200252F823209F
:101330001143EB1006F1200242F8231019E0474850
:10134000844216D14FF01D092846E91705EB51716B
:10135000C910A5EBC1018A0002219140EB1006F1F2
:10136000200252F823201143EB1006F1200242F82C
:101370002310B8F1010F09D0B8F1020F0FD0B8F166
:10138000030F15D0B8F1040F24D11AE0A06940F082
:101390000100A061A06940F40070A0611BE0A06999
:1013A00040F00200A061A06940F48070A06112E0EA
:1013B000E06940F00100E061E06940F40070E06144
:1013C00009E0E06940F00100E061E06940F400708C
:1013D000E06100E000BF00BFB8F1010F02D0B8F13A
:1013E000020F14D1206A20F00A002062206A40F027
:1013F00020002062206A40F001002062206A40F054
:1014000010002062E06840F00600E06019E0B8F1EA
:10141000030F02D0B8F1040F13D1206A20F420602A
:101420002062206A40F400502062206A40F48070FC
:101430002062206A40F480502062E06840F018008A
:10144000E060E06840F00100E060206840F00100EA
:101450002060BDE8F083000000000140000400406F
:1014600070B500231F4CA04201D101230DE01E4C9A
:10147000A04201D1022308E01C4CA04201D1042368
:1014800003E01B4CA04200D108231A4C24681C43E3
:10149000184D2C6004684E000325B540AC43046031
:1014A00004684D0002FA05F52C430460C4684E0040
:1014B0000325B540AC43C460012A01D0022A10D1F3
:1014C00084684E000325B540AC43846084684E00B8
:1014D0000225B5402C438460446801258D40AC430F
:1014E000446070BD00000240000402400008024059
:1014F000000C0240303802402DE9F047074688468C
:101500001546C7F800807D60384600F001FBBC68D6
:10151000D7F80C907749B86888421BD12846E9175C
:1015200005EB5171C910A5EBC1018A000121914061
:10153000EB1008F1200252F823201143EB1008F1C0
:10154000200242F823106C48006840F001006A490C
:10155000086042E0B868B0F1804F1DD12846E91715
:1015600005EB5171C910A5EBC1018A000121914021
:10157000EB1008F1200252F823201143EB1008F180
:10158000200242F823105C48001F006840F0010070
:101590005949091F086020E05849B86888421CD1A1
:1015A0002846E91705EB5171C910A5EBC1018A0066
:1015B00002219140EB1008F1200252F82320114340
:1015C000EB1008F1200242F823104B48001F00687E
:1015D00040F002004849091F08605320A0622068BB
:1015E00020F010002060B7EE000A384600F088F8BE
:1015F000E06A461CB9F1010F19D1A06920F0700012
:10160000A061A06940F06000A061A06940F00800FE
:10161000A061304606EBD07149106163206A20F06A
:1016200002002062206A40F00100206255E0B9F11A
:10163000020F19D1A06920F4E040A061A06940F434
:10164000C040A061A06940F40060A061304606EB94
:10165000D0714910A163206A20F020002062206A26
:1016600040F01000206238E0B9F1030F19D1E069B1
:1016700020F07000E061E06940F06000E061E06946
:1016800040F00800E061304606EBD0714910E1639C
:10169000206A20F400702062206A40F4807020628A
:1016A0001BE0B9F1040F18D1E06920F4E040E061DB
:1016B000E06940F4C040E061E06940F40060E0614E
:1016C000304606EBD07149102164206A20F40050A6
:1016D0002062206A40F4805020620648844203D190
:1016E000606C40F400406064206840F001002060BD
:1016F000BDE8F0870000014044380240000400408B
:1017000010B58268C368DFED080A60EE200AFDEEBE
:10171000E00A10EE901AB1F5803F01DB4FF6FF7141
:101720004C1ED46210BD000000007A440146886857
:10173000CA68012A06D0022A0ED0032A16D0042A2B
:1017400028D11DE0DFED150A60EE200AFCEEE00A6C
:1017500010EE903A43631EE0DFED100A60EE200ABF
:10176000FCEEE00A10EE903A836314E0DFED0B0A22
:1017700060EE200AFCEEE00A10EE903AC3630AE045
:10178000DFED060A60EE200AFCEEE00A10EE903A69
:10179000036400E000BF00BF7047000000007A440F
:1017A0003B48006820F00F0039490860084600688F
:1017B00040F0020008603748006840F001003549F9
:1017C000086000BF3348006800F002000028F9D02C
:1017D0003048006820F080702E490860081D0068BD
:1017E00020F48000091D086008460068086008466B
:1017F000006847F6C071884340F4A8502549091D88
:1018000008600846006820F03F0040F008000860CB
:101810000846006820F440300860081F006840F067
:101820008070091F086000BF1A480068C0F340605C
:101830000028F9D117480830006820F00300154946
:10184000083108600846006840F00200086000BFE8
:1018500010480830006800F00C000828F8D10D4846
:101860000830006820F0F0000A4908310860084696
:10187000006820F4E05008600846006840F480509A
:1018800008600846006820F4604008607047000067
:10189000003C02400038024000B500F001F800BDF5
:1018A00002480068401C01490860704700000020A1
:1018B00010B500204FF0E02108611B48486100206E
:1018C0008861401E0121002804DB0A07130E174A15
:1018D000135406E00A07140E154A00F00F031B1FED
:1018E000D45400BF4FF0FF30002809DB00F01F0286
:1018F000012191404209920002F1E022C2F8001158
:1019000000BF4FF0E020006940F002004FF0E021FE
:1019100008610846006940F0040008610846006953
:1019200040F00100086110BD1F48010000E400E024
:1019300018ED00E01448006840F470001249086097
:101940001248006840F001001049086000200F496B
:10195000083108600D4800680D4908400B490860CF
:101960000C48091D0860081F006820F48020091F2A
:101970000860002005490C3108604FF00060024902
:10198000803908607047000088ED00E000380240B0
:10199000FFFFF6FE103000244FF08040006900F099
:1019A000010060B12E480068401C2D4908604FF0CE
:1019B0008040006920F001004FF0804108614FF045
:1019C0008040006900F0080008281AD1C006C06BEA
:1019D000234909684FF6FF7202FB010021490860A4
:1019E00000201F4908604FF08040006920F0080087
:1019F0004FF0804108610846006920F400600861EA
:101A00002CE04FF08040006900F01000102825D134
:101A10008006006C124909684FF6FF7202FB010054
:101A200011490860084600680E490968884206D9CD
:101A30000D4800680B490968401A0C4908600A48BB
:101A40000068084908600020054908604FF08040A0
:101A5000006920F010004FF08041086170470000DD
:101A6000140000200C0000201000002018000020AE
:101A700010B501460022012906D002290CD0032905
:101A800015D0042927D11CE01C481D4B1B6843F0CE
:101A900001031B4C23601EE04FF08040184B1B1FBE
:101AA0001B6843F00103164C241F236013E0154804
:101AB000134B1B1F1B6843F00203114C241F2360B0
:101AC00009E011480E4B1B1F1B6843F004030C4C2C
:101AD000241F236000BF00BFDFED0C0A60EE200A68
:101AE000FCEEE00A10EE903A5A1E82624FF6FF7347
:101AF000C362036823F01003036010BD00000140BF
:101B00004438024000040040000800400000A842A1
:101B100010B5026841684C4B9A4239D1102935D230
:101B2000DFE801F0080E343434141A341F24293449
:101B30003434342E4FF0804383600123C36026E0A9
:101B40004FF0804383600223C36020E04FF0804366
:101B500083600123C3601AE03C4B83600123C360B0
:101B600015E03B4B83600123C36010E0384B83607A
:101B70000223C3600BE0364B83600323C36006E09F
:101B80004FF0804383600123C36000E000BF59E051
:101B9000304B9A4234D1CB1E082B2FD2DFE803F012
:101BA000040A0F14191E23284FF080438360022378
:101BB000C36024E0254B83600123C3601FE0234BF7
:101BC00083600223C3601AE0234B83600123C36058
:101BD00015E0214B83600223C36010E01E4B83603D
:101BE0000323C3600BE01C4B83600323C36006E048
:101BF0004FF0804383600323C36000E000BF21E017
:101C0000164B9A421ED1062906D0072909D0082969
:101C10000CD0092914D10EE00C4B83600123C36062
:101C20000FE00A4B83600223C3600AE0074B836026
:101C30000323C36005E0054B83600423C36000E019
:101C400000BF00BF10BD00000000024000040040C3
:101C5000000001400004024000080040000802406B
:101C60001F49096841F001011D4A116002201D4908
:101C7000096843000F229A4091431A4A11601146A5
:101C8000096843000A229A401143164A116011461E
:101C9000096A830077229A401143124A1162114661
:101CA000896843000F229A4011430E4A9160114601
:101CB000C96843000F229A4091430A4AD1601146F5
:101CC000C968430005229A401143064AD160114673
:101CD0004A68032181408A4302494A6070470000F4
:101CE000303802400000024070B505460C461848E6
:101CF000006840F4003016490860FFF7B1FF224643
:101D00002946144800F03CF8012C1FD1262001215F
:101D1000002804DB0A07130E0F4A135406E00A07D3
:101D2000160E0E4A00F00F031B1FD65400BF2620CC
:101D3000002809DB00F01F020121914042099200B6
:101D400002F1E022C2F8001100BF00BF70BD000028
:101D5000403802400044004000E400E018ED00E09C
:101D6000014800687047000000440040642242437C
:101D70000723B2FBF3F100BF4A1E111EFCD17047CE
:101D80002DE9F0412DED068B04460E461746E0681E
:101D900020F40050E060E06820F48050E060E068EB
:101DA00020F48060E060206920F440502061E06809
:101DB00020F40040E06000EE106AB8EEC00ADFEDEB
:101DC000280A80EE801AB0EE418ABCEEC80A10EEF6
:101DD000105A00EE105AB8EE400A38EE400AF3EE00
:101DE000000A20EE200A10EE101A084600F08EFCC1
:101DF00041EC1A0BB0EE4A0AF0EE6A0A00F06CF8F9
:101E0000B0EE409AF0EE609A51EC190B00F046FAF1
:101E10008046B8F10F0F02D96D1C4FF00008A06882
:101E200048EA05110843A060E06840F00C00E0605B
:101E3000012F07D1606940F0C0006061E06840F0A8
:101E40002000E0601FB9606940F0C0006061E06898
:101E500040F40050E060BDEC068BBDE8F08100006E
:101E6000A037204AF0B504460E46174600250CE080
:101E700000BF206800F080000028FAD0705D60602C
:101E80004FF49670FFF772FF6D1CBD42F0D300BF98
:101E9000206800F040000028FAD0206820F04000C0
:101EA0002060F0BD03B401984100009850EAC120C1
:101EB00018BF04204A0D18BF40F0010040F2FF7225
:101EC000B2EB515F08BF40F00200012808BF0520B7
:101ED00002B070470000000010B52DED020B2DED93
:101EE000088B84B09DED0C0B51EC100B00F0CAFA7E
:101EF00041EC180B9DED0C0B53EC182B51EC100B17
:101F000000F01AFB41EC190B0D989FED290B10F016
:101F1000004F53EC102B51EC190B9FED21AB9FEDB3
:101F200022BB0ED000F0E8F90ED953EC1B2B51EC7C
:101F3000190B00F071FA1CD214E000BF41EC180B31
:101F400017E000F0D9F906D253EC1A2B51EC180B1C
:101F500000F0F2FAF2E753EC1B2B51EC190B00F0F6
:101F60005BFA06D853EC1A2B51EC180B00F0E2F890
:101F7000E4E78DED028B9DED0C0B18EE901A10EE40
:101F8000900A8DED000B61F31E0003909DED020B96
:101F900004B0BDEC088B02B010BD000000000000D2
:101FA000000000000000F03F000000000000E03FE3
:101FB000000000000000E0BF30380A2801D20120F4
:101FC0007047002070470000054A116800BF044AAE
:101FD0001268521A8242FAD30022014B1A607047EB
:101FE0000000002038B504460D46E0B20090012202
:101FF00069460248FFF736FF204638BD00440040DE
:102000002DED048B88B0FFF7CBFBFFF751FC0021CF
:102010004FF41650FFF768FE022208212E48FFF702
:102020001FFA08222C4904A8FFF766FA9FED2B0A35
:1020300004A8FFF765FB9FED2A0A04A8FFF776FBCB
:1020400002220A212748FFF70BFAB7EE000A022006
:10205000FFF70EFD0A2223496846FFF72BF91C20E3
:102060000221002804DB0A07130E1F4A135406E05E
:102070000A07140E1D4A00F00F031B1FD45400BFA3
:102080001C20002809DB00F01F02012191404209B9
:10209000920002F1E022C2F8001100BF9FED148A05
:1020A00019E0144890ED000AB8EE400ADFED120A7C
:1020B00080EE201AB0EE418A18EE100A00F026FBDE
:1020C00041EC190B53EC192B0CA0FEF7E1F84FF47F
:1020D000FA70FFF779FFE4E7000002400000484291
:1020E0000AD7233C0004024000E400E018ED00E0C1
:1020F000000000001800002000006842252E336612
:1021000020636D0D0A00000010B500290AD0087880
:10211000002807D005487844FEF7BCFC002801D011
:10212000002010BD0248784410BD00009A0700004E
:102130009207000010B591EA030F48BF83F00043F7
:1021400000F10282841A71EB030C05D2121943EBE1
:102150000C03001B61EB0C01DFF824E14FEA115482
:10216000A4EB135C1EEA430F18BF9EEA445F73D0D2
:1021700023EA0E03DCF1200E21EA045143F480131C
:1021800032D322FA0CFE10EB0E0023FA0CFE41EBC8
:102190000E01CCF1200E03FA0EFE10EB0E0051F1F1
:1021A0000001B1F5801FCCF1200E32D201EB0451B9
:1021B00012FA0EF2BDE8104058BF7047401C38BFFD
:1021C0005FEA420218BF7047002814BF20F00100E8
:1021D00041F100014FEA410313F5001F38BF70477A
:1021E000A1F1C04100F012B9012A43EB0302ACF1A6
:1021F000200CDCF11F0E32BF4FF0000E23FA0CF35F
:1022000010EB030041EB0451B4EB115FD0D0A1EB14
:10221000045101F5801149085FEA300001EB0451D7
:102220000ED350F1000038BF12FA0EFE08D1BDE8FF
:102230001040C9E7401C38BF5FEA4202CAD1C3E779
:10224000BDE810404FEA410313F5001F38BF704747
:10225000A1F1C04100F0DAB89EEA445F08D011EA6B
:102260005E0FBDE8104004BF01F000410020704740
:10227000BDE8104070B500F07BF800BF64FBBE3EC7
:102280000000E0FF491058BFC1F140415B1058BF4A
:10229000C3F140438B42EFF3008070474FEA115384
:1022A000A3F58063D3F11E03A8BFD3F1200C08DB94
:1022B0004FF0004242EAC12252EA505232FA03F091
:1022C000704709420BD4102BC4BF0020704703F5A0
:1022D000787CBCF1FF3F05D04FF0FF3070474FF0E6
:1022E0000000704770B500F043F800BF49922480A9
:1022F00000207047F0E7000051EA030C17D41CF5EA
:10230000801F58BFBCF5801F00F10680994218BF9E
:10231000704708BF9042704707D711F5801F58BF1C
:1023200013F5801F19D499427047894270471CF5F4
:10233000801F08D5BCF5801FF7D58B4218BF7047AA
:1023400008BF824270474FF4001C1CEB410F38BF9E
:102350001CEB430F01D28B42704770B500F008F8B8
:10236000922449004FF000514FF08053FFF78ABF8D
:102370000EF1020E2EF0030E5EF8046B364205D409
:10238000012A43EB030515F5001F12D8012841EB84
:10239000010C1CF5001F0CD80ED14FEAD17C15F5AD
:1023A000001F0CEB4C0C0CF1020C08BF4CEBD37C67
:1023B00004E04FF0080C01E04FEAD37C0CEB4C0535
:1023C00026FA05F606F00706B6F1040C06D20EEB67
:1023D000860CBDE870404CF0010C6047DFE80CF063
:1023E000090B02024FF000414FF00000A1F500215F
:1023F00070BD19461046012851EB010418BFD4F5F1
:10240000001484BF002001F0004170BD0808A0F551
:1024100000114FEA3101704753EA010C17D41CF543
:10242000801F58BFBCF5801F00F106808B4218BF8B
:10243000704708BF8242704707D713F5801F58BF07
:1024400011F5801F19D48B4270479B4270471CF5D1
:10245000801F08D5BCF5801FF7D5994218BF70477B
:1024600008BF904270474FF4001C1CEB430F38BF6D
:102470001CEB410F01D2994270470FB40CBC03BC56
:10248000FFF76BBF5FEA410C5FEA5C5CACF5806311
:102490005B1C39D4D3F1340240F34580B2F1200300
:1024A00014DA4FF0010C0CFA02FCACF1010303400A
:1024B000B3EB5C0220EA030008BF10EA0C0F98BFE0
:1024C000704710EB0C0041F1000170470AD0C3F1D6
:1024D000200201FA02FC012821FA03F101FA03F1BA
:1024E0004CF100004FF0010C0CFA03FCACF10103BD
:1024F000B0F1004F21EA030108BF11EA0C0F4FF0C1
:10250000000088BF61447047B3F1FF3F28BF50EA25
:10251000C12C01F000414FF0000084BF41F07C511C
:1025200041F470017047B3F5806FB8BF704770B564
:10253000FFF71EFF40DBB6BE10B591EA030F48BFA0
:1025400083F000433FF5FEAD841A71EB030C07D214
:1025500012198CF0004C43EB0C03001B61EB0C01D7
:10256000DFF8A4E14FEA1154A4EB135C1EEA430F19
:1025700018BF9EEA445F00F0B08023EA6E03524227
:1025800021EA0451C3EB6E0338BF5B1EDCF1200E61
:1025900025D322FA0CFE10EB0E0043FA0CFE41EBA1
:1025A0000E01CCF1200E03FA0EFE10EB0E0051F1DD
:1025B0000001CCF1200E29D412FA0EF201EB0451E5
:1025C000BDE8104058BF7047401C1CBFB2F1004F1F
:1025D000704700280CBF491C20F00100704712EB27
:1025E000020E43EB030218BF4FF0010E4EEA420207
:1025F000ACF1200CDCF11E0E54D943FA0CFE10EBAA
:102600000E0051F1FF31CCF11E0ED5D50EF1010EA9
:1026100012FA0EFE404141EB010101EB445C5FEA1E
:102620005C5C10D910EBDE7001EB045138BFBEF1D9
:10263000004FBDE8104018BF704700280CBF491C70
:1026400020F00100704730D24FEAD42C11F5001170
:1026500024F400641BD0B1FA81F20B3AA41AA41E30
:10266000D2F12003914030FA03F31943904001EB7B
:10267000CC71002C01EB0451BDE81040A8BF70479D
:1026800001F1C0414FF0000001F000417047B0FA85
:1026900080F310FA03F100D110BDE41A173C48058D
:1026A000C90AE4E701EB045110BD491001EB0451E4
:1026B000BDE810404FEA300002E04FF000017047E3
:1026C0004A0008BF0042F8D0B2F5001F28BF70478B
:1026D00001F000414FF0000070479EEA445F07D0D0
:1026E00011EA5E0FBDE8104004BF002100207047D2
:1026F000BDE8104070B5FFF73BFE00BF40DFF63E7F
:1027000083F00041104670470000E0FF43004FEAAD
:10271000D30C4FEA3C0C43401FBF40070CF1605103
:1027200013F0FE4F70471CF0006F03D100200CF037
:10273000004170470CF0004343EA507010B540EA86
:10274000CC0000F00EF800BF000000924FEA00013C
:10275000FFF75CBE4FF000414FF00000A1F50021F3
:1027600070470EF1020E2EF0030E5EF8044B244269
:1027700004D44FEA4102B2F17F4F11D84FEA40032F
:10278000B3F17F4F0CD80ED14FEAD07CB2F17F4F1E
:102790000CEB4C0C0CF1020C08BF4CEBD17C04E0B0
:1027A0004FF0080C01E04FEAD17C0CEB4C0324FA0B
:1027B00003F404F00704B4F1040C06D20EEB840C0D
:1027C000BDE810404CF0010C6047DFE80CF0070852
:1027D00002024FF00040A0F5800010BD0846420004
:1027E00018BFD2F1807288BF00F0004010BD4FF0DA
:1027F0004070E1EE100A7047FDF7B9BE02400000DC
:10280000000000A00000000005400000000000C81B
:10281000000000000C4000000000409C0000000090
:10282000194000000020BCBE000000003440000041
:10283000BFC91B8E00000004B5400000504BCFD034
:102840006607E2CF010000006C4100003E8251AA01
:10285000DFEEA73401000000D9420000DCB5A0E2A1
:102860003A301F97FFFFFFFFB4450000FD25A0C8C9
:10287000E9A3C14FFFFFFFFFFF3F00000000008002
:1028800000000000FF3F000000000080000000008A
:10289000CC280008000000201C000000D401000823
:1028A000E82800081C00002064060000F001000871
:1028B0001C00000043000000F8FFFFFF0C000000B8
:1028C0000E0000000F0000002E00000000000000BD
:1028D00000000000000000000000000000000000F8
:0828E0000000000000000000F0
:040000050800019955
:00000001FF
