:020000040800F2
:10000000600600201D0200082502000827020008E3
:10001000290200082B0200082D0200080000000041
:100020000000000000000000000000002F02000897
:100030003102000800000000330200083502000809
:1000400037020008370200083702000837020008AC
:10005000370200083702000837020008370200089C
:10006000370200083702000837020008370200088C
:10007000370200083702000837020008370200087C
:1000800037020008370200083702000800000000AD
:10009000000000000000000000000000370200081F
:1000A000370200083702000837020008370200084C
:1000B000370200083702000837020008370200083C
:1000C000370200083702000837020008370200082C
:1000D000370200083702000837020008000000005D
:1000E000370200083702000837020008000000004D
:1000F00000000000000000000000000037020008BF
:10010000000000003702000837020008370200082C
:1001100000000000000000000000000000000000DF
:1001200037020008370200083702000837020008CB
:10013000370200080000000000000000000000007E
:10014000000000000000000000000000370200086E
:10015000370200083702000837020008370200089B
:10016000370200083702000800000000000000000D
:10017000000000000000000000000000000000007F
:10018000000000003702000800000000000000002E
:10019000370200083702000800F002F800F02EF8DD
:1001A0000AA090E8000C82448344AAF10107DA45D2
:1001B00001D100F023F8AFF2090EBAE80F0013F0F6
:1001C000010F18BFFB1A43F0010318470803000092
:1001D000180300000023002400250026103A28BF41
:1001E00078C1FBD8520728BF30C148BF0B607047A9
:1001F0001FB500F069F91FBD10B510BD00F031F852
:100200001146FFF7F5FF00F03DF900F04FF803B499
:10021000FFF7F2FF03BC00F057F8000009488047E1
:1002200009480047FEE7FEE7FEE7FEE7FEE7FEE7D8
:10023000FEE7FEE7FEE7FEE704480549054A064BF0
:1002400070470000210400089901000860000020A8
:1002500060060020600200206002002070477047A6
:100260007047754600F02CF8AE46050069465346C7
:1002700020F00700854618B020B5FFF7DDFFBDE888
:1002800020404FF000064FF000074FF000084FF0FD
:10029000000B21F00701AC46ACE8C009ACE8C0098E
:1002A000ACE8C009ACE8C0098D46704710B50446FB
:1002B000AFF300802046BDE81040FFF7A8BF000064
:1002C000004870470000002001491820ABBEFEE73F
:1002D000260002007047000070B500232E4CA0429B
:1002E00001D101230DE02D4CA04201D1022308E0F1
:1002F0002B4CA04201D1042303E02A4CA04200D1A0
:100300000823012A28D1284C24681C43264D2C6040
:1003100004684E000325B540AC43046004684D00FA
:1003200002FA05F52C43046084684E000325B540AD
:10033000AC43846084684E000225B5402C43846041
:10034000456801248C40A5434560C4684E000325E0
:10035000B540AC43C4601DE0E2B9134C24681C43B3
:10036000114D2C6004684E000325B540AC43046079
:1003700004684D0002FA05F52C430460C4684E0081
:100380000325B540AC43C460C4684E000225B540A7
:100390002C43C46070BD0000000002400004024015
:1003A00000080240000C024030380240024610694A
:1003B00001238B401840704710B5012A05D14369CD
:1003C00001248C402343436105E022B944690123A1
:1003D0008B409C43446110BD1048006840F0010010
:1003E0000E49086000BF0D48006800F002000028B8
:1003F000F9D00A480830006820F0030007490831A6
:10040000086008460068086000BF044808300068BB
:1004100000F00C000028F8D17047000000380240BE
:100420001448006840F470001249086012480068DF
:1004300040F001001049086000200F4908310860B1
:100440000D4800680D4908400B4908600C48091D1B
:100450000860081F006820F48020091F0860002041
:1004600005490C3108604FF000600249803908608E
:100470007047000088ED00E000380240FFFFF6FE04
:1004800010300024FFF7A8FF00220D210C48FFF7D1
:1004900023FF012205210B48FFF71EFF0FE00D216E
:1004A0000748FFF783FF28B9012205210548FFF718
:1004B00083FF04E0002205210248FFF77DFFEEE7FD
:1004C00000080240000002404FF04070E1EE100AC8
:1004D00070470000E40400080000002060060000EF
:0404E000D40100083B
:040000050800019955
:00000001FF
